{
  "contractName": "Election",
  "abi": [
    {
      "inputs": [],
      "payable": false,
      "stateMutability": "nonpayable",
      "type": "constructor"
    },
    {
      "constant": true,
      "inputs": [
        {
          "internalType": "uint256",
          "name": "",
          "type": "uint256"
        }
      ],
      "name": "candidates",
      "outputs": [
        {
          "internalType": "uint256",
          "name": "id",
          "type": "uint256"
        },
        {
          "internalType": "string",
          "name": "name",
          "type": "string"
        },
        {
          "internalType": "string",
          "name": "school",
          "type": "string"
        },
        {
          "internalType": "uint256",
          "name": "votes",
          "type": "uint256"
        }
      ],
      "payable": false,
      "stateMutability": "view",
      "type": "function"
    },
    {
      "constant": true,
      "inputs": [],
      "name": "numberOfCandidates",
      "outputs": [
        {
          "internalType": "uint256",
          "name": "",
          "type": "uint256"
        }
      ],
      "payable": false,
      "stateMutability": "view",
      "type": "function"
    },
    {
      "constant": true,
      "inputs": [
        {
          "internalType": "address",
          "name": "",
          "type": "address"
        }
      ],
      "name": "voters",
      "outputs": [
        {
          "internalType": "bool",
          "name": "",
          "type": "bool"
        }
      ],
      "payable": false,
      "stateMutability": "view",
      "type": "function"
    },
    {
      "constant": false,
      "inputs": [
        {
          "internalType": "uint256",
          "name": "_candidateId",
          "type": "uint256"
        }
      ],
      "name": "voteCandidate",
      "outputs": [],
      "payable": false,
      "stateMutability": "nonpayable",
      "type": "function"
    }
  ],
  "bytecode": "0x608060405234801561001057600080fd5b5061008b6040518060400160405280600e81526020017f43656472696320446967676f72790000000000000000000000000000000000008152506040518060400160405280600f81526020017f486f677761727473205363686f6f6c000000000000000000000000000000000081525061018460201b60201c565b6101056040518060400160405280600e81526020017f466c6575722044656c61636f75720000000000000000000000000000000000008152506040518060400160405280601c81526020017f42656175786261746f6e732041636164656d79206f66204d616769630000000081525061018460201b60201c565b61017f6040518060400160405280600b81526020017f56696b746f72204b72756d0000000000000000000000000000000000000000008152506040518060400160405280601481526020017f4475726d737472616e6720496e7374697475746500000000000000000000000081525061018460201b60201c565b6102c9565b6002600081548092919060010191905055506040518060800160405280600254815260200183815260200182815260200160008152506001600060025481526020019081526020016000206000820151816000015560208201518160010190805190602001906101f5929190610224565b506040820151816002019080519060200190610212929190610224565b50606082015181600301559050505050565b828054600181600116156101000203166002900490600052602060002090601f016020900481019282601f1061026557805160ff1916838001178555610293565b82800160010185558215610293579182015b82811115610292578251825591602001919060010190610277565b5b5090506102a091906102a4565b5090565b6102c691905b808211156102c25760008160009055506001016102aa565b5090565b90565b610598806102d86000396000f3fe608060405234801561001057600080fd5b506004361061004c5760003560e01c80633477ee2e146100515780638c08a4dc146101725780639c84bb27146101a0578063a3ec138d146101be575b600080fd5b61007d6004803603602081101561006757600080fd5b810190808035906020019092919050505061021a565b604051808581526020018060200180602001848152602001838103835286818151815260200191508051906020019080838360005b838110156100cd5780820151818401526020810190506100b2565b50505050905090810190601f1680156100fa5780820380516001836020036101000a031916815260200191505b50838103825285818151815260200191508051906020019080838360005b83811015610133578082015181840152602081019050610118565b50505050905090810190601f1680156101605780820380516001836020036101000a031916815260200191505b50965050505050505060405180910390f35b61019e6004803603602081101561018857600080fd5b810190808035906020019092919050505061037a565b005b6101a861053d565b6040518082815260200191505060405180910390f35b610200600480360360208110156101d457600080fd5b81019080803573ffffffffffffffffffffffffffffffffffffffff169060200190929190505050610543565b604051808215151515815260200191505060405180910390f35b6001602052806000526040600020600091509050806000015490806001018054600181600116156101000203166002900480601f0160208091040260200160405190810160405280929190818152602001828054600181600116156101000203166002900480156102cc5780601f106102a1576101008083540402835291602001916102cc565b820191906000526020600020905b8154815290600101906020018083116102af57829003601f168201915b505050505090806002018054600181600116156101000203166002900480601f01602080910402602001604051908101604052809291908181526020018280546001816001161561010002031660029004801561036a5780601f1061033f5761010080835404028352916020019161036a565b820191906000526020600020905b81548152906001019060200180831161034d57829003601f168201915b5050505050908060030154905084565b6000803373ffffffffffffffffffffffffffffffffffffffff1673ffffffffffffffffffffffffffffffffffffffff16815260200190815260200160002060009054906101000a900460ff1615610439576040517f08c379a00000000000000000000000000000000000000000000000000000000081526004018080602001828103825260128152602001807f5573657220616c726561647920766f746564000000000000000000000000000081525060200191505060405180910390fd5b60008111801561044b57506002548111155b6104bd576040517f08c379a000000000000000000000000000000000000000000000000000000000815260040180806020018281038252601d8152602001807f496e76616c69642063616e64696461746520746f20766f746520666f7200000081525060200191505060405180910390fd5b60016000803373ffffffffffffffffffffffffffffffffffffffff1673ffffffffffffffffffffffffffffffffffffffff16815260200190815260200160002060006101000a81548160ff021916908315150217905550600160008281526020019081526020016000206003016000815480929190600101919050555050565b60025481565b60006020528060005260406000206000915054906101000a900460ff168156fea265627a7a7231582091c97573f308cf92435cdcdfa78401218f1fe265e02ba313c6104301cc5d872f64736f6c63430005100032",
  "source": "// SPDX-License-Identifier: MIT\npragma solidity >=0.4.22 <0.8.0;\n\ncontract Election {\n  // Model of the candidate\n  struct Candidate {\n    uint256 id;\n    string name;\n    string school;\n    uint256 votes;\n  }\n\n  // Persists all voters address in storage\n  mapping(address => bool) public voters;\n\n  // Persists candidates in storage\n  mapping(uint256 => Candidate) public candidates;\n\n  // To keep track of list of candidates in election\n  uint256 public numberOfCandidates;\n\n  constructor() public {\n    addCandidate(\"Cedric Diggory\", \"Hogwarts School\");\n    addCandidate(\"Fleur Delacour\", \"Beauxbatons Academy of Magic\");\n    addCandidate(\"Viktor Krum\", \"Durmstrang Institute\");\n  }\n\n  // To add list of candidates to election\n  function addCandidate(\n    string memory _candidateName,\n    string memory _candidateSchool\n  ) private {\n    // increment candidate id\n    numberOfCandidates++;\n\n    // store candidates into the mapping\n    candidates[numberOfCandidates] = Candidate(\n      numberOfCandidates,\n      _candidateName,\n      _candidateSchool,\n      0\n    );\n  }\n\n  // To vote for a candidate\n  function voteCandidate(uint256 _candidateId) public {\n    // check if voter has not voted before\n    require(!voters[msg.sender], \"User already voted\");\n\n    // check if vote is towards valid candidate\n    require(\n      _candidateId > 0 && _candidateId <= numberOfCandidates,\n      \"Invalid candidate to vote for\"\n    );\n\n    // if all conditions are valid then proceed by adding the voter to mapping\n    voters[msg.sender] = true;\n\n    // up the candidates votes\n    candidates[_candidateId].votes++;\n  }\n}\n",
  "sourcePath": "/home/za/projects/zbx/goblet-of-fire-polls-contracts/src/Election.sol",
  "compiler": {
    "name": "solc",
    "version": "0.5.16+commit.9c3226ce.Emscripten.clang"
  },
  "schemaVersion": "3.3.1",
  "updatedAt": "2020-10-20T19:18:35.176Z",
  "networkType": "ethereum",
  "devdoc": {
    "methods": {}
  },
  "userdoc": {
    "methods": {}
  }
}