{
  "contractName": "Election",
  "abi": [
    {
      "inputs": [],
      "payable": false,
      "stateMutability": "nonpayable",
      "type": "constructor"
    },
    {
      "constant": true,
      "inputs": [
        {
          "internalType": "uint256",
          "name": "",
          "type": "uint256"
        }
      ],
      "name": "candidates",
      "outputs": [
        {
          "internalType": "uint256",
          "name": "id",
          "type": "uint256"
        },
        {
          "internalType": "string",
          "name": "name",
          "type": "string"
        },
        {
          "internalType": "string",
          "name": "school",
          "type": "string"
        },
        {
          "internalType": "uint256",
          "name": "votes",
          "type": "uint256"
        }
      ],
      "payable": false,
      "stateMutability": "view",
      "type": "function"
    },
    {
      "constant": true,
      "inputs": [],
      "name": "numberOfCandidates",
      "outputs": [
        {
          "internalType": "uint256",
          "name": "",
          "type": "uint256"
        }
      ],
      "payable": false,
      "stateMutability": "view",
      "type": "function"
    }
  ],
  "bytecode": "0x608060405234801561001057600080fd5b5061008b6040518060400160405280600e81526020017f43656472696320446967676f72790000000000000000000000000000000000008152506040518060400160405280600f81526020017f486f677761727473205363686f6f6c000000000000000000000000000000000081525061018460201b60201c565b6101056040518060400160405280600e81526020017f466c6575722044656c61636f75720000000000000000000000000000000000008152506040518060400160405280601c81526020017f42656175786261746f6e732041636164656d79206f66204d616769630000000081525061018460201b60201c565b61017f6040518060400160405280600b81526020017f56696b746f72204b72756d0000000000000000000000000000000000000000008152506040518060400160405280601481526020017f4475726d737472616e6720496e7374697475746500000000000000000000000081525061018460201b60201c565b6102c8565b60016000815480929190600101919050555060405180608001604052806001548152602001838152602001828152602001600081525060008060015481526020019081526020016000206000820151816000015560208201518160010190805190602001906101f4929190610223565b506040820151816002019080519060200190610211929190610223565b50606082015181600301559050505050565b828054600181600116156101000203166002900490600052602060002090601f016020900481019282601f1061026457805160ff1916838001178555610292565b82800160010185558215610292579182015b82811115610291578251825591602001919060010190610276565b5b50905061029f91906102a3565b5090565b6102c591905b808211156102c15760008160009055506001016102a9565b5090565b90565b610315806102d76000396000f3fe608060405234801561001057600080fd5b50600436106100365760003560e01c80633477ee2e1461003b5780639c84bb271461015c575b600080fd5b6100676004803603602081101561005157600080fd5b810190808035906020019092919050505061017a565b604051808581526020018060200180602001848152602001838103835286818151815260200191508051906020019080838360005b838110156100b757808201518184015260208101905061009c565b50505050905090810190601f1680156100e45780820380516001836020036101000a031916815260200191505b50838103825285818151815260200191508051906020019080838360005b8381101561011d578082015181840152602081019050610102565b50505050905090810190601f16801561014a5780820380516001836020036101000a031916815260200191505b50965050505050505060405180910390f35b6101646102da565b6040518082815260200191505060405180910390f35b6000602052806000526040600020600091509050806000015490806001018054600181600116156101000203166002900480601f01602080910402602001604051908101604052809291908181526020018280546001816001161561010002031660029004801561022c5780601f106102015761010080835404028352916020019161022c565b820191906000526020600020905b81548152906001019060200180831161020f57829003601f168201915b505050505090806002018054600181600116156101000203166002900480601f0160208091040260200160405190810160405280929190818152602001828054600181600116156101000203166002900480156102ca5780601f1061029f576101008083540402835291602001916102ca565b820191906000526020600020905b8154815290600101906020018083116102ad57829003601f168201915b5050505050908060030154905084565b6001548156fea265627a7a72315820ca30628f90af2d6a79513e83681eb3236e2b499d925143cf3a4c272814c2d82764736f6c63430005100032",
  "source": "// SPDX-License-Identifier: MIT\npragma solidity >=0.4.22 <0.8.0;\n\ncontract Election {\n  // Model of the candidate\n  struct Candidate {\n    uint256 id;\n    string name;\n    string school;\n    uint256 votes;\n  }\n\n  // Persists candidates in storage\n  mapping(uint256 => Candidate) public candidates;\n\n  // To keep track of list of candidates in election\n  uint256 public numberOfCandidates;\n\n  constructor() public {\n    addCandidate(\"Cedric Diggory\", \"Hogwarts School\");\n    addCandidate(\"Fleur Delacour\", \"Beauxbatons Academy of Magic\");\n    addCandidate(\"Viktor Krum\", \"Durmstrang Institute\");\n  }\n\n  function addCandidate(\n    string memory _candidateName,\n    string memory _candidateSchool\n  ) private {\n    numberOfCandidates++;\n    candidates[numberOfCandidates] = Candidate(\n      numberOfCandidates,\n      _candidateName,\n      _candidateSchool,\n      0\n    );\n  }\n}\n",
  "sourcePath": "/home/za/projects/zbx/goblet-of-fire-polls-contracts/src/Election.sol",
  "compiler": {
    "name": "solc",
    "version": "0.5.16+commit.9c3226ce.Emscripten.clang"
  },
  "schemaVersion": "3.3.1",
  "updatedAt": "2020-10-19T21:19:25.659Z",
  "networkType": "ethereum",
  "devdoc": {
    "methods": {}
  },
  "userdoc": {
    "methods": {}
  }
}